{
  "_format": "hh-sol-artifact-1",
  "contractName": "MovieTicketing",
  "sourceName": "contracts/MovieTicketing.sol",
  "abi": [
    {
      "anonymous": false,
      "inputs": [
        {
          "indexed": false,
          "internalType": "uint256",
          "name": "_movieIndex",
          "type": "uint256"
        },
        {
          "indexed": false,
          "internalType": "string",
          "name": "title",
          "type": "string"
        },
        {
          "indexed": false,
          "internalType": "uint256",
          "name": "rating",
          "type": "uint256"
        },
        {
          "indexed": false,
          "internalType": "uint256",
          "name": "totalSeats",
          "type": "uint256"
        }
      ],
      "name": "MovieAdded",
      "type": "event"
    },
    {
      "anonymous": false,
      "inputs": [
        {
          "indexed": false,
          "internalType": "address",
          "name": "owner",
          "type": "address"
        },
        {
          "indexed": false,
          "internalType": "uint256[]",
          "name": "seatIndex",
          "type": "uint256[]"
        }
      ],
      "name": "SeatBooked",
      "type": "event"
    },
    {
      "inputs": [
        {
          "internalType": "string",
          "name": "_title",
          "type": "string"
        },
        {
          "internalType": "uint256",
          "name": "_rating",
          "type": "uint256"
        },
        {
          "internalType": "uint256",
          "name": "_totalSeats",
          "type": "uint256"
        }
      ],
      "name": "addMovie",
      "outputs": [],
      "stateMutability": "nonpayable",
      "type": "function"
    },
    {
      "inputs": [
        {
          "internalType": "uint256",
          "name": "_movieIndex",
          "type": "uint256"
        },
        {
          "internalType": "uint256[]",
          "name": "_seatIndex",
          "type": "uint256[]"
        },
        {
          "internalType": "address",
          "name": "_owner",
          "type": "address"
        }
      ],
      "name": "bookSeat",
      "outputs": [],
      "stateMutability": "nonpayable",
      "type": "function"
    },
    {
      "inputs": [
        {
          "internalType": "address",
          "name": "",
          "type": "address"
        },
        {
          "internalType": "uint256",
          "name": "",
          "type": "uint256"
        }
      ],
      "name": "clientSeats",
      "outputs": [
        {
          "internalType": "uint256",
          "name": "movieId",
          "type": "uint256"
        },
        {
          "internalType": "uint256",
          "name": "seatIndex",
          "type": "uint256"
        }
      ],
      "stateMutability": "view",
      "type": "function"
    },
    {
      "inputs": [],
      "name": "getAllMovies",
      "outputs": [
        {
          "components": [
            {
              "internalType": "uint256",
              "name": "movieIndex",
              "type": "uint256"
            },
            {
              "internalType": "string",
              "name": "title",
              "type": "string"
            },
            {
              "internalType": "uint256",
              "name": "rating",
              "type": "uint256"
            },
            {
              "internalType": "uint256",
              "name": "totalSeats",
              "type": "uint256"
            }
          ],
          "internalType": "struct MovieStruct[]",
          "name": "",
          "type": "tuple[]"
        }
      ],
      "stateMutability": "view",
      "type": "function"
    },
    {
      "inputs": [],
      "name": "getAllMoviesCount",
      "outputs": [
        {
          "internalType": "uint256",
          "name": "",
          "type": "uint256"
        }
      ],
      "stateMutability": "view",
      "type": "function"
    },
    {
      "inputs": [],
      "name": "getSeatsByClientId",
      "outputs": [
        {
          "components": [
            {
              "internalType": "uint256",
              "name": "movieId",
              "type": "uint256"
            },
            {
              "internalType": "uint256",
              "name": "seatIndex",
              "type": "uint256"
            }
          ],
          "internalType": "struct SeatStruct[]",
          "name": "",
          "type": "tuple[]"
        }
      ],
      "stateMutability": "view",
      "type": "function"
    },
    {
      "inputs": [
        {
          "internalType": "uint256",
          "name": "_movieId",
          "type": "uint256"
        }
      ],
      "name": "getSeatsByMovieId",
      "outputs": [
        {
          "internalType": "uint256[]",
          "name": "",
          "type": "uint256[]"
        }
      ],
      "stateMutability": "view",
      "type": "function"
    },
    {
      "inputs": [
        {
          "internalType": "uint256",
          "name": "",
          "type": "uint256"
        },
        {
          "internalType": "uint256",
          "name": "",
          "type": "uint256"
        }
      ],
      "name": "movieToBookedSeats",
      "outputs": [
        {
          "internalType": "uint256",
          "name": "",
          "type": "uint256"
        }
      ],
      "stateMutability": "view",
      "type": "function"
    },
    {
      "inputs": [
        {
          "internalType": "uint256",
          "name": "",
          "type": "uint256"
        }
      ],
      "name": "movies",
      "outputs": [
        {
          "internalType": "uint256",
          "name": "movieIndex",
          "type": "uint256"
        },
        {
          "internalType": "string",
          "name": "title",
          "type": "string"
        },
        {
          "internalType": "uint256",
          "name": "rating",
          "type": "uint256"
        },
        {
          "internalType": "uint256",
          "name": "totalSeats",
          "type": "uint256"
        }
      ],
      "stateMutability": "view",
      "type": "function"
    }
  ],
  "bytecode": "0x608060405273f39fd6e51aad88f6f4ce6ab8827279cfffb92266600160006101000a81548173ffffffffffffffffffffffffffffffffffffffff021916908373ffffffffffffffffffffffffffffffffffffffff16021790555034801561006557600080fd5b506117ac806100756000396000f3fe608060405234801561001057600080fd5b50600436106100925760003560e01c80635af3cc3b116100665780635af3cc3b1461013257806395c763c614610150578063e08e1ef214610180578063e16f0065146101b1578063f1f165e5146101cf57610092565b806270a1591461009757806311be2a68146100c75780632080c3dc146100e3578063404ebf6c146100ff575b600080fd5b6100b160048036038101906100ac9190610a2f565b6101ed565b6040516100be9190610a7e565b60405180910390f35b6100e160048036038101906100dc9190610c50565b61021e565b005b6100fd60048036038101906100f89190610d74565b6103d5565b005b61011960048036038101906101149190610de3565b610569565b6040516101299493929190610e8f565b60405180910390f35b61013a610631565b6040516101479190610fc8565b60405180910390f35b61016a60048036038101906101659190610de3565b6106e1565b6040516101779190611099565b60405180910390f35b61019a600480360381019061019591906110bb565b61074c565b6040516101a89291906110fb565b60405180910390f35b6101b961078d565b6040516101c69190611293565b60405180910390f35b6101d761089c565b6040516101e49190610a7e565b60405180910390f35b6004602052816000526040600020818154811061020957600080fd5b90600052602060002001600091509150505481565b600061022a84846108a9565b90508061026c576040517f08c379a000000000000000000000000000000000000000000000000000000000815260040161026390611301565b60405180910390fd5b6102746109a3565b60005b8451811015610394578582600001818152505084818151811061029d5761029c611321565b5b6020026020010151826020018181525050600360008573ffffffffffffffffffffffffffffffffffffffff1673ffffffffffffffffffffffffffffffffffffffff168152602001908152602001600020829080600181540180825580915050600190039060005260206000209060020201600090919091909150600082015181600001556020820151816001015550506004600087815260200190815260200160002085828151811061035357610352611321565b5b60200260200101519080600181540180825580915050600190039060005260206000200160009091909190915055808061038c9061137f565b915050610277565b507ff2c222c5c57526a62806c612db8e7ea6bbfb8a4c5b87a4768bb155c351a4d9f583856040516103c69291906113d6565b60405180910390a15050505050565b600160009054906101000a900473ffffffffffffffffffffffffffffffffffffffff1673ffffffffffffffffffffffffffffffffffffffff163373ffffffffffffffffffffffffffffffffffffffff1614610465576040517f08c379a000000000000000000000000000000000000000000000000000000000815260040161045c90611478565b60405180910390fd5b61046d6109bd565b600054816000018181525050838160200181905250828160400181815250508181606001818152505060028190806001815401808255809150506001900390600052602060002090600402016000909190919091506000820151816000015560208201518160010190816104e191906116a4565b50604082015181600201556060820151816003015550506004600080548152602001908152602001600020507f016a5e7e30a5293078590a43f48f9c25553a4aaf18107da59e249f989ab672806000548585856040516105449493929190610e8f565b60405180910390a160008081548092919061055e9061137f565b919050555050505050565b6002818154811061057957600080fd5b90600052602060002090600402016000915090508060000154908060010180546105a2906114c7565b80601f01602080910402602001604051908101604052809291908181526020018280546105ce906114c7565b801561061b5780601f106105f05761010080835404028352916020019161061b565b820191906000526020600020905b8154815290600101906020018083116105fe57829003601f168201915b5050505050908060020154908060030154905084565b6060600360003373ffffffffffffffffffffffffffffffffffffffff1673ffffffffffffffffffffffffffffffffffffffff168152602001908152602001600020805480602002602001604051908101604052809291908181526020016000905b828210156106d857838290600052602060002090600202016040518060400160405290816000820154815260200160018201548152505081526020019060010190610692565b50505050905090565b60606004600083815260200190815260200160002080548060200260200160405190810160405280929190818152602001828054801561074057602002820191906000526020600020905b81548152602001906001019080831161072c575b50505050509050919050565b6003602052816000526040600020818154811061076857600080fd5b9060005260206000209060020201600091509150508060000154908060010154905082565b60606002805480602002602001604051908101604052809291908181526020016000905b828210156108935783829060005260206000209060040201604051806080016040529081600082015481526020016001820180546107ee906114c7565b80601f016020809104026020016040519081016040528092919081815260200182805461081a906114c7565b80156108675780601f1061083c57610100808354040283529160200191610867565b820191906000526020600020905b81548152906001019060200180831161084a57829003601f168201915b5050505050815260200160028201548152602001600382015481525050815260200190600101906107b1565b50505050905090565b6000600280549050905090565b6000806004600085815260200190815260200160002080548060200260200160405190810160405280929190818152602001828054801561090957602002820191906000526020600020905b8154815260200190600101908083116108f5575b5050505050905060005b83518110156109965760005b82518110156109825784828151811061093b5761093a611321565b5b602002602001015183828151811061095657610955611321565b5b60200260200101510361096f576000935050505061099d565b808061097a9061137f565b91505061091f565b50808061098e9061137f565b915050610913565b5060019150505b92915050565b604051806040016040528060008152602001600081525090565b6040518060800160405280600081526020016060815260200160008152602001600081525090565b6000604051905090565b600080fd5b600080fd5b6000819050919050565b610a0c816109f9565b8114610a1757600080fd5b50565b600081359050610a2981610a03565b92915050565b60008060408385031215610a4657610a456109ef565b5b6000610a5485828601610a1a565b9250506020610a6585828601610a1a565b9150509250929050565b610a78816109f9565b82525050565b6000602082019050610a936000830184610a6f565b92915050565b600080fd5b6000601f19601f8301169050919050565b7f4e487b7100000000000000000000000000000000000000000000000000000000600052604160045260246000fd5b610ae782610a9e565b810181811067ffffffffffffffff82111715610b0657610b05610aaf565b5b80604052505050565b6000610b196109e5565b9050610b258282610ade565b919050565b600067ffffffffffffffff821115610b4557610b44610aaf565b5b602082029050602081019050919050565b600080fd5b6000610b6e610b6984610b2a565b610b0f565b90508083825260208201905060208402830185811115610b9157610b90610b56565b5b835b81811015610bba5780610ba68882610a1a565b845260208401935050602081019050610b93565b5050509392505050565b600082601f830112610bd957610bd8610a99565b5b8135610be9848260208601610b5b565b91505092915050565b600073ffffffffffffffffffffffffffffffffffffffff82169050919050565b6000610c1d82610bf2565b9050919050565b610c2d81610c12565b8114610c3857600080fd5b50565b600081359050610c4a81610c24565b92915050565b600080600060608486031215610c6957610c686109ef565b5b6000610c7786828701610a1a565b935050602084013567ffffffffffffffff811115610c9857610c976109f4565b5b610ca486828701610bc4565b9250506040610cb586828701610c3b565b9150509250925092565b600080fd5b600067ffffffffffffffff821115610cdf57610cde610aaf565b5b610ce882610a9e565b9050602081019050919050565b82818337600083830152505050565b6000610d17610d1284610cc4565b610b0f565b905082815260208101848484011115610d3357610d32610cbf565b5b610d3e848285610cf5565b509392505050565b600082601f830112610d5b57610d5a610a99565b5b8135610d6b848260208601610d04565b91505092915050565b600080600060608486031215610d8d57610d8c6109ef565b5b600084013567ffffffffffffffff811115610dab57610daa6109f4565b5b610db786828701610d46565b9350506020610dc886828701610a1a565b9250506040610dd986828701610a1a565b9150509250925092565b600060208284031215610df957610df86109ef565b5b6000610e0784828501610a1a565b91505092915050565b600081519050919050565b600082825260208201905092915050565b60005b83811015610e4a578082015181840152602081019050610e2f565b60008484015250505050565b6000610e6182610e10565b610e6b8185610e1b565b9350610e7b818560208601610e2c565b610e8481610a9e565b840191505092915050565b6000608082019050610ea46000830187610a6f565b8181036020830152610eb68186610e56565b9050610ec56040830185610a6f565b610ed26060830184610a6f565b95945050505050565b600081519050919050565b600082825260208201905092915050565b6000819050602082019050919050565b610f10816109f9565b82525050565b604082016000820151610f2c6000850182610f07565b506020820151610f3f6020850182610f07565b50505050565b6000610f518383610f16565b60408301905092915050565b6000602082019050919050565b6000610f7582610edb565b610f7f8185610ee6565b9350610f8a83610ef7565b8060005b83811015610fbb578151610fa28882610f45565b9750610fad83610f5d565b925050600181019050610f8e565b5085935050505092915050565b60006020820190508181036000830152610fe28184610f6a565b905092915050565b600081519050919050565b600082825260208201905092915050565b6000819050602082019050919050565b60006110228383610f07565b60208301905092915050565b6000602082019050919050565b600061104682610fea565b6110508185610ff5565b935061105b83611006565b8060005b8381101561108c5781516110738882611016565b975061107e8361102e565b92505060018101905061105f565b5085935050505092915050565b600060208201905081810360008301526110b3818461103b565b905092915050565b600080604083850312156110d2576110d16109ef565b5b60006110e085828601610c3b565b92505060206110f185828601610a1a565b9150509250929050565b60006040820190506111106000830185610a6f565b61111d6020830184610a6f565b9392505050565b600081519050919050565b600082825260208201905092915050565b6000819050602082019050919050565b600082825260208201905092915050565b600061116c82610e10565b6111768185611150565b9350611186818560208601610e2c565b61118f81610a9e565b840191505092915050565b60006080830160008301516111b26000860182610f07565b50602083015184820360208601526111ca8282611161565b91505060408301516111df6040860182610f07565b5060608301516111f26060860182610f07565b508091505092915050565b6000611209838361119a565b905092915050565b6000602082019050919050565b600061122982611124565b611233818561112f565b93508360208202850161124585611140565b8060005b85811015611281578484038952815161126285826111fd565b945061126d83611211565b925060208a01995050600181019050611249565b50829750879550505050505092915050565b600060208201905081810360008301526112ad818461121e565b905092915050565b7f5365617420616c726561647920626f6f6b656400000000000000000000000000600082015250565b60006112eb601383610e1b565b91506112f6826112b5565b602082019050919050565b6000602082019050818103600083015261131a816112de565b9050919050565b7f4e487b7100000000000000000000000000000000000000000000000000000000600052603260045260246000fd5b7f4e487b7100000000000000000000000000000000000000000000000000000000600052601160045260246000fd5b600061138a826109f9565b91507fffffffffffffffffffffffffffffffffffffffffffffffffffffffffffffffff82036113bc576113bb611350565b5b600182019050919050565b6113d081610c12565b82525050565b60006040820190506113eb60008301856113c7565b81810360208301526113fd818461103b565b90509392505050565b7f596f7520646f6e2774202068617665202070726976696c6167652020746f204160008201527f6464206d6f766965000000000000000000000000000000000000000000000000602082015250565b6000611462602883610e1b565b915061146d82611406565b604082019050919050565b6000602082019050818103600083015261149181611455565b9050919050565b7f4e487b7100000000000000000000000000000000000000000000000000000000600052602260045260246000fd5b600060028204905060018216806114df57607f821691505b6020821081036114f2576114f1611498565b5b50919050565b60008190508160005260206000209050919050565b60006020601f8301049050919050565b600082821b905092915050565b60006008830261155a7fffffffffffffffffffffffffffffffffffffffffffffffffffffffffffffffff8261151d565b611564868361151d565b95508019841693508086168417925050509392505050565b6000819050919050565b60006115a161159c611597846109f9565b61157c565b6109f9565b9050919050565b6000819050919050565b6115bb83611586565b6115cf6115c7826115a8565b84845461152a565b825550505050565b600090565b6115e46115d7565b6115ef8184846115b2565b505050565b5b81811015611613576116086000826115dc565b6001810190506115f5565b5050565b601f82111561165857611629816114f8565b6116328461150d565b81016020851015611641578190505b61165561164d8561150d565b8301826115f4565b50505b505050565b600082821c905092915050565b600061167b6000198460080261165d565b1980831691505092915050565b6000611694838361166a565b9150826002028217905092915050565b6116ad82610e10565b67ffffffffffffffff8111156116c6576116c5610aaf565b5b6116d082546114c7565b6116db828285611617565b600060209050601f83116001811461170e57600084156116fc578287015190505b6117068582611688565b86555061176e565b601f19841661171c866114f8565b60005b828110156117445784890151825560018201915060208501945060208101905061171f565b86831015611761578489015161175d601f89168261166a565b8355505b6001600288020188555050505b50505050505056fea2646970667358221220fb80e91e961ab2aead15cd6dcc2f7731f4dcae22d17fe808f63ae40aca6e0a4464736f6c63430008130033",
  "linkReferences": {},
  "deployedLinkReferences": {}
}