{
  "_format": "hh-sol-artifact-1",
  "contractName": "MovieTicketing",
  "sourceName": "contracts/MovieTicketing.sol",
  "abi": [
    {
      "anonymous": false,
      "inputs": [
        {
          "indexed": false,
          "internalType": "uint256",
          "name": "_movieIndex",
          "type": "uint256"
        },
        {
          "indexed": false,
          "internalType": "string",
          "name": "title",
          "type": "string"
        },
        {
          "indexed": false,
          "internalType": "uint256",
          "name": "rating",
          "type": "uint256"
        },
        {
          "indexed": false,
          "internalType": "uint256",
          "name": "totalSeats",
          "type": "uint256"
        }
      ],
      "name": "MovieAdded",
      "type": "event"
    },
    {
      "anonymous": false,
      "inputs": [
        {
          "indexed": false,
          "internalType": "address",
          "name": "owner",
          "type": "address"
        },
        {
          "indexed": false,
          "internalType": "uint256[]",
          "name": "seatIndex",
          "type": "uint256[]"
        },
        {
          "indexed": false,
          "internalType": "uint256",
          "name": "movieId",
          "type": "uint256"
        }
      ],
      "name": "SeatBooked",
      "type": "event"
    },
    {
      "inputs": [
        {
          "internalType": "string",
          "name": "_title",
          "type": "string"
        },
        {
          "internalType": "uint256",
          "name": "_rating",
          "type": "uint256"
        },
        {
          "internalType": "uint256",
          "name": "_totalSeats",
          "type": "uint256"
        }
      ],
      "name": "addMovie",
      "outputs": [],
      "stateMutability": "nonpayable",
      "type": "function"
    },
    {
      "inputs": [
        {
          "internalType": "uint256",
          "name": "_movieIndex",
          "type": "uint256"
        },
        {
          "internalType": "uint256[]",
          "name": "_seatIndex",
          "type": "uint256[]"
        },
        {
          "internalType": "address",
          "name": "_owner",
          "type": "address"
        }
      ],
      "name": "bookSeat",
      "outputs": [],
      "stateMutability": "nonpayable",
      "type": "function"
    },
    {
      "inputs": [
        {
          "internalType": "address",
          "name": "",
          "type": "address"
        },
        {
          "internalType": "uint256",
          "name": "",
          "type": "uint256"
        }
      ],
      "name": "clientSeats",
      "outputs": [
        {
          "internalType": "uint256",
          "name": "movieId",
          "type": "uint256"
        },
        {
          "internalType": "uint256",
          "name": "seatIndex",
          "type": "uint256"
        }
      ],
      "stateMutability": "view",
      "type": "function"
    },
    {
      "inputs": [],
      "name": "getAllMovies",
      "outputs": [
        {
          "components": [
            {
              "internalType": "uint256",
              "name": "movieIndex",
              "type": "uint256"
            },
            {
              "internalType": "string",
              "name": "title",
              "type": "string"
            },
            {
              "internalType": "uint256",
              "name": "rating",
              "type": "uint256"
            },
            {
              "internalType": "uint256",
              "name": "totalSeats",
              "type": "uint256"
            }
          ],
          "internalType": "struct MovieStruct[]",
          "name": "",
          "type": "tuple[]"
        }
      ],
      "stateMutability": "view",
      "type": "function"
    },
    {
      "inputs": [],
      "name": "getAllMoviesCount",
      "outputs": [
        {
          "internalType": "uint256",
          "name": "",
          "type": "uint256"
        }
      ],
      "stateMutability": "view",
      "type": "function"
    },
    {
      "inputs": [],
      "name": "getSeatsByClientId",
      "outputs": [
        {
          "components": [
            {
              "internalType": "uint256",
              "name": "movieId",
              "type": "uint256"
            },
            {
              "internalType": "uint256",
              "name": "seatIndex",
              "type": "uint256"
            }
          ],
          "internalType": "struct SeatStruct[]",
          "name": "",
          "type": "tuple[]"
        }
      ],
      "stateMutability": "view",
      "type": "function"
    },
    {
      "inputs": [
        {
          "internalType": "uint256",
          "name": "_movieId",
          "type": "uint256"
        }
      ],
      "name": "getSeatsByMovieId",
      "outputs": [
        {
          "internalType": "uint256[]",
          "name": "",
          "type": "uint256[]"
        }
      ],
      "stateMutability": "view",
      "type": "function"
    },
    {
      "inputs": [
        {
          "internalType": "uint256",
          "name": "",
          "type": "uint256"
        },
        {
          "internalType": "uint256",
          "name": "",
          "type": "uint256"
        }
      ],
      "name": "movieToBookedSeats",
      "outputs": [
        {
          "internalType": "uint256",
          "name": "",
          "type": "uint256"
        }
      ],
      "stateMutability": "view",
      "type": "function"
    },
    {
      "inputs": [
        {
          "internalType": "uint256",
          "name": "",
          "type": "uint256"
        }
      ],
      "name": "movies",
      "outputs": [
        {
          "internalType": "uint256",
          "name": "movieIndex",
          "type": "uint256"
        },
        {
          "internalType": "string",
          "name": "title",
          "type": "string"
        },
        {
          "internalType": "uint256",
          "name": "rating",
          "type": "uint256"
        },
        {
          "internalType": "uint256",
          "name": "totalSeats",
          "type": "uint256"
        }
      ],
      "stateMutability": "view",
      "type": "function"
    }
  ],
  "bytecode": "0x608060405273f39fd6e51aad88f6f4ce6ab8827279cfffb92266600160006101000a81548173ffffffffffffffffffffffffffffffffffffffff021916908373ffffffffffffffffffffffffffffffffffffffff16021790555034801561006557600080fd5b506117bc806100756000396000f3fe608060405234801561001057600080fd5b50600436106100925760003560e01c80635af3cc3b116100665780635af3cc3b1461013257806395c763c614610150578063e08e1ef214610180578063e16f0065146101b1578063f1f165e5146101cf57610092565b806270a1591461009757806311be2a68146100c75780632080c3dc146100e3578063404ebf6c146100ff575b600080fd5b6100b160048036038101906100ac9190610a31565b6101ed565b6040516100be9190610a80565b60405180910390f35b6100e160048036038101906100dc9190610c52565b61021e565b005b6100fd60048036038101906100f89190610d76565b6103d7565b005b61011960048036038101906101149190610de5565b61056b565b6040516101299493929190610e91565b60405180910390f35b61013a610633565b6040516101479190610fca565b60405180910390f35b61016a60048036038101906101659190610de5565b6106e3565b604051610177919061109b565b60405180910390f35b61019a600480360381019061019591906110bd565b61074e565b6040516101a89291906110fd565b60405180910390f35b6101b961078f565b6040516101c69190611295565b60405180910390f35b6101d761089e565b6040516101e49190610a80565b60405180910390f35b6004602052816000526040600020818154811061020957600080fd5b90600052602060002001600091509150505481565b600061022a84846108ab565b90508061026c576040517f08c379a000000000000000000000000000000000000000000000000000000000815260040161026390611303565b60405180910390fd5b60005b8351811015610395576102806109a5565b8581600001818152505084828151811061029d5761029c611323565b5b6020026020010151816020018181525050600360008573ffffffffffffffffffffffffffffffffffffffff1673ffffffffffffffffffffffffffffffffffffffff168152602001908152602001600020819080600181540180825580915050600190039060005260206000209060020201600090919091909150600082015181600001556020820151816001015550506004600087815260200190815260200160002085838151811061035357610352611323565b5b6020026020010151908060018154018082558091505060019003906000526020600020016000909190919091505550808061038d90611381565b91505061026f565b507fac94204c972acb06d0bf8c9e5d214a5a8683e24a9b35241f87133d528b6fe1668284866040516103c9939291906113d8565b60405180910390a150505050565b600160009054906101000a900473ffffffffffffffffffffffffffffffffffffffff1673ffffffffffffffffffffffffffffffffffffffff163373ffffffffffffffffffffffffffffffffffffffff1614610467576040517f08c379a000000000000000000000000000000000000000000000000000000000815260040161045e90611488565b60405180910390fd5b61046f6109bf565b600054816000018181525050838160200181905250828160400181815250508181606001818152505060028190806001815401808255809150506001900390600052602060002090600402016000909190919091506000820151816000015560208201518160010190816104e391906116b4565b50604082015181600201556060820151816003015550506004600080548152602001908152602001600020507f016a5e7e30a5293078590a43f48f9c25553a4aaf18107da59e249f989ab672806000548585856040516105469493929190610e91565b60405180910390a160008081548092919061056090611381565b919050555050505050565b6002818154811061057b57600080fd5b90600052602060002090600402016000915090508060000154908060010180546105a4906114d7565b80601f01602080910402602001604051908101604052809291908181526020018280546105d0906114d7565b801561061d5780601f106105f25761010080835404028352916020019161061d565b820191906000526020600020905b81548152906001019060200180831161060057829003601f168201915b5050505050908060020154908060030154905084565b6060600360003373ffffffffffffffffffffffffffffffffffffffff1673ffffffffffffffffffffffffffffffffffffffff168152602001908152602001600020805480602002602001604051908101604052809291908181526020016000905b828210156106da57838290600052602060002090600202016040518060400160405290816000820154815260200160018201548152505081526020019060010190610694565b50505050905090565b60606004600083815260200190815260200160002080548060200260200160405190810160405280929190818152602001828054801561074257602002820191906000526020600020905b81548152602001906001019080831161072e575b50505050509050919050565b6003602052816000526040600020818154811061076a57600080fd5b9060005260206000209060020201600091509150508060000154908060010154905082565b60606002805480602002602001604051908101604052809291908181526020016000905b828210156108955783829060005260206000209060040201604051806080016040529081600082015481526020016001820180546107f0906114d7565b80601f016020809104026020016040519081016040528092919081815260200182805461081c906114d7565b80156108695780601f1061083e57610100808354040283529160200191610869565b820191906000526020600020905b81548152906001019060200180831161084c57829003601f168201915b5050505050815260200160028201548152602001600382015481525050815260200190600101906107b3565b50505050905090565b6000600280549050905090565b6000806004600085815260200190815260200160002080548060200260200160405190810160405280929190818152602001828054801561090b57602002820191906000526020600020905b8154815260200190600101908083116108f7575b5050505050905060005b83518110156109985760005b82518110156109845784828151811061093d5761093c611323565b5b602002602001015183828151811061095857610957611323565b5b602002602001015103610971576000935050505061099f565b808061097c90611381565b915050610921565b50808061099090611381565b915050610915565b5060019150505b92915050565b604051806040016040528060008152602001600081525090565b6040518060800160405280600081526020016060815260200160008152602001600081525090565b6000604051905090565b600080fd5b600080fd5b6000819050919050565b610a0e816109fb565b8114610a1957600080fd5b50565b600081359050610a2b81610a05565b92915050565b60008060408385031215610a4857610a476109f1565b5b6000610a5685828601610a1c565b9250506020610a6785828601610a1c565b9150509250929050565b610a7a816109fb565b82525050565b6000602082019050610a956000830184610a71565b92915050565b600080fd5b6000601f19601f8301169050919050565b7f4e487b7100000000000000000000000000000000000000000000000000000000600052604160045260246000fd5b610ae982610aa0565b810181811067ffffffffffffffff82111715610b0857610b07610ab1565b5b80604052505050565b6000610b1b6109e7565b9050610b278282610ae0565b919050565b600067ffffffffffffffff821115610b4757610b46610ab1565b5b602082029050602081019050919050565b600080fd5b6000610b70610b6b84610b2c565b610b11565b90508083825260208201905060208402830185811115610b9357610b92610b58565b5b835b81811015610bbc5780610ba88882610a1c565b845260208401935050602081019050610b95565b5050509392505050565b600082601f830112610bdb57610bda610a9b565b5b8135610beb848260208601610b5d565b91505092915050565b600073ffffffffffffffffffffffffffffffffffffffff82169050919050565b6000610c1f82610bf4565b9050919050565b610c2f81610c14565b8114610c3a57600080fd5b50565b600081359050610c4c81610c26565b92915050565b600080600060608486031215610c6b57610c6a6109f1565b5b6000610c7986828701610a1c565b935050602084013567ffffffffffffffff811115610c9a57610c996109f6565b5b610ca686828701610bc6565b9250506040610cb786828701610c3d565b9150509250925092565b600080fd5b600067ffffffffffffffff821115610ce157610ce0610ab1565b5b610cea82610aa0565b9050602081019050919050565b82818337600083830152505050565b6000610d19610d1484610cc6565b610b11565b905082815260208101848484011115610d3557610d34610cc1565b5b610d40848285610cf7565b509392505050565b600082601f830112610d5d57610d5c610a9b565b5b8135610d6d848260208601610d06565b91505092915050565b600080600060608486031215610d8f57610d8e6109f1565b5b600084013567ffffffffffffffff811115610dad57610dac6109f6565b5b610db986828701610d48565b9350506020610dca86828701610a1c565b9250506040610ddb86828701610a1c565b9150509250925092565b600060208284031215610dfb57610dfa6109f1565b5b6000610e0984828501610a1c565b91505092915050565b600081519050919050565b600082825260208201905092915050565b60005b83811015610e4c578082015181840152602081019050610e31565b60008484015250505050565b6000610e6382610e12565b610e6d8185610e1d565b9350610e7d818560208601610e2e565b610e8681610aa0565b840191505092915050565b6000608082019050610ea66000830187610a71565b8181036020830152610eb88186610e58565b9050610ec76040830185610a71565b610ed46060830184610a71565b95945050505050565b600081519050919050565b600082825260208201905092915050565b6000819050602082019050919050565b610f12816109fb565b82525050565b604082016000820151610f2e6000850182610f09565b506020820151610f416020850182610f09565b50505050565b6000610f538383610f18565b60408301905092915050565b6000602082019050919050565b6000610f7782610edd565b610f818185610ee8565b9350610f8c83610ef9565b8060005b83811015610fbd578151610fa48882610f47565b9750610faf83610f5f565b925050600181019050610f90565b5085935050505092915050565b60006020820190508181036000830152610fe48184610f6c565b905092915050565b600081519050919050565b600082825260208201905092915050565b6000819050602082019050919050565b60006110248383610f09565b60208301905092915050565b6000602082019050919050565b600061104882610fec565b6110528185610ff7565b935061105d83611008565b8060005b8381101561108e5781516110758882611018565b975061108083611030565b925050600181019050611061565b5085935050505092915050565b600060208201905081810360008301526110b5818461103d565b905092915050565b600080604083850312156110d4576110d36109f1565b5b60006110e285828601610c3d565b92505060206110f385828601610a1c565b9150509250929050565b60006040820190506111126000830185610a71565b61111f6020830184610a71565b9392505050565b600081519050919050565b600082825260208201905092915050565b6000819050602082019050919050565b600082825260208201905092915050565b600061116e82610e12565b6111788185611152565b9350611188818560208601610e2e565b61119181610aa0565b840191505092915050565b60006080830160008301516111b46000860182610f09565b50602083015184820360208601526111cc8282611163565b91505060408301516111e16040860182610f09565b5060608301516111f46060860182610f09565b508091505092915050565b600061120b838361119c565b905092915050565b6000602082019050919050565b600061122b82611126565b6112358185611131565b93508360208202850161124785611142565b8060005b85811015611283578484038952815161126485826111ff565b945061126f83611213565b925060208a0199505060018101905061124b565b50829750879550505050505092915050565b600060208201905081810360008301526112af8184611220565b905092915050565b7f5365617420616c726561647920626f6f6b656400000000000000000000000000600082015250565b60006112ed601383610e1d565b91506112f8826112b7565b602082019050919050565b6000602082019050818103600083015261131c816112e0565b9050919050565b7f4e487b7100000000000000000000000000000000000000000000000000000000600052603260045260246000fd5b7f4e487b7100000000000000000000000000000000000000000000000000000000600052601160045260246000fd5b600061138c826109fb565b91507fffffffffffffffffffffffffffffffffffffffffffffffffffffffffffffffff82036113be576113bd611352565b5b600182019050919050565b6113d281610c14565b82525050565b60006060820190506113ed60008301866113c9565b81810360208301526113ff818561103d565b905061140e6040830184610a71565b949350505050565b7f596f7520646f6e2774202068617665202070726976696c6167652020746f204160008201527f6464206d6f766965000000000000000000000000000000000000000000000000602082015250565b6000611472602883610e1d565b915061147d82611416565b604082019050919050565b600060208201905081810360008301526114a181611465565b9050919050565b7f4e487b7100000000000000000000000000000000000000000000000000000000600052602260045260246000fd5b600060028204905060018216806114ef57607f821691505b602082108103611502576115016114a8565b5b50919050565b60008190508160005260206000209050919050565b60006020601f8301049050919050565b600082821b905092915050565b60006008830261156a7fffffffffffffffffffffffffffffffffffffffffffffffffffffffffffffffff8261152d565b611574868361152d565b95508019841693508086168417925050509392505050565b6000819050919050565b60006115b16115ac6115a7846109fb565b61158c565b6109fb565b9050919050565b6000819050919050565b6115cb83611596565b6115df6115d7826115b8565b84845461153a565b825550505050565b600090565b6115f46115e7565b6115ff8184846115c2565b505050565b5b81811015611623576116186000826115ec565b600181019050611605565b5050565b601f8211156116685761163981611508565b6116428461151d565b81016020851015611651578190505b61166561165d8561151d565b830182611604565b50505b505050565b600082821c905092915050565b600061168b6000198460080261166d565b1980831691505092915050565b60006116a4838361167a565b9150826002028217905092915050565b6116bd82610e12565b67ffffffffffffffff8111156116d6576116d5610ab1565b5b6116e082546114d7565b6116eb828285611627565b600060209050601f83116001811461171e576000841561170c578287015190505b6117168582611698565b86555061177e565b601f19841661172c86611508565b60005b828110156117545784890151825560018201915060208501945060208101905061172f565b86831015611771578489015161176d601f89168261167a565b8355505b6001600288020188555050505b50505050505056fea2646970667358221220bfdff745ad4cc2bba8fe85f93b8e6ac29a6846f186bf9944a6ce934e4d92241b64736f6c63430008130033",
  "linkReferences": {},
  "deployedLinkReferences": {}
}