{
  "_format": "hh-sol-artifact-1",
  "contractName": "MovieTicketing",
  "sourceName": "contracts/MovieTicketing.sol",
  "abi": [
    {
      "anonymous": false,
      "inputs": [
        {
          "indexed": false,
          "internalType": "string",
          "name": "title",
          "type": "string"
        },
        {
          "indexed": false,
          "internalType": "uint256",
          "name": "totalSeats",
          "type": "uint256"
        }
      ],
      "name": "MovieAdded",
      "type": "event"
    },
    {
      "anonymous": false,
      "inputs": [
        {
          "indexed": false,
          "internalType": "address",
          "name": "from",
          "type": "address"
        },
        {
          "indexed": false,
          "internalType": "uint256",
          "name": "ammount",
          "type": "uint256"
        },
        {
          "indexed": false,
          "internalType": "uint256[]",
          "name": "seats",
          "type": "uint256[]"
        },
        {
          "indexed": false,
          "internalType": "uint256",
          "name": "timestamp",
          "type": "uint256"
        },
        {
          "indexed": false,
          "internalType": "string",
          "name": "keyword",
          "type": "string"
        }
      ],
      "name": "transfer",
      "type": "event"
    },
    {
      "inputs": [
        {
          "internalType": "string",
          "name": "_title",
          "type": "string"
        },
        {
          "internalType": "uint256",
          "name": "_totalSeats",
          "type": "uint256"
        }
      ],
      "name": "addMovie",
      "outputs": [],
      "stateMutability": "nonpayable",
      "type": "function"
    },
    {
      "inputs": [],
      "name": "getAllMovies",
      "outputs": [
        {
          "components": [
            {
              "internalType": "string",
              "name": "title",
              "type": "string"
            },
            {
              "internalType": "uint256",
              "name": "totalSeats",
              "type": "uint256"
            }
          ],
          "internalType": "struct MovieStruct[]",
          "name": "",
          "type": "tuple[]"
        }
      ],
      "stateMutability": "view",
      "type": "function"
    },
    {
      "inputs": [],
      "name": "getAllMoviesCount",
      "outputs": [
        {
          "internalType": "uint256",
          "name": "",
          "type": "uint256"
        }
      ],
      "stateMutability": "view",
      "type": "function"
    },
    {
      "inputs": [
        {
          "internalType": "uint256",
          "name": "",
          "type": "uint256"
        }
      ],
      "name": "movies",
      "outputs": [
        {
          "internalType": "string",
          "name": "title",
          "type": "string"
        },
        {
          "internalType": "uint256",
          "name": "totalSeats",
          "type": "uint256"
        }
      ],
      "stateMutability": "view",
      "type": "function"
    },
    {
      "inputs": [],
      "name": "owner",
      "outputs": [
        {
          "internalType": "address",
          "name": "",
          "type": "address"
        }
      ],
      "stateMutability": "view",
      "type": "function"
    }
  ],
  "bytecode": "0x608060405234801561001057600080fd5b50610b6e806100206000396000f3fe608060405234801561001057600080fd5b50600436106100575760003560e01c80633f6803811461005c578063404ebf6c146100785780638da5cb5b146100a9578063e16f0065146100c7578063f1f165e5146100e5575b600080fd5b61007660048036038101906100719190610522565b610103565b005b610092600480360381019061008d919061057e565b6101a8565b6040516100a0929190610639565b60405180910390f35b6100b1610264565b6040516100be91906106aa565b60405180910390f35b6100cf61028a565b6040516100dc919061081d565b60405180910390f35b6100ed610385565b6040516100fa919061083f565b60405180910390f35b600060405180604001604052808481526020018381525090506002819080600181540180825580915050600190039060005260206000209060020201600090919091909150600082015181600001908161015d9190610a66565b506020820151816001015550507f780d026f9dc4045f94a8f4a924a38e6b534a97770d8d172b3b7feef42b324247838360405161019b929190610639565b60405180910390a1505050565b600281815481106101b857600080fd5b90600052602060002090600202016000915090508060000180546101db90610889565b80601f016020809104026020016040519081016040528092919081815260200182805461020790610889565b80156102545780601f1061022957610100808354040283529160200191610254565b820191906000526020600020905b81548152906001019060200180831161023757829003601f168201915b5050505050908060010154905082565b600160009054906101000a900473ffffffffffffffffffffffffffffffffffffffff1681565b60606002805480602002602001604051908101604052809291908181526020016000905b8282101561037c57838290600052602060002090600202016040518060400160405290816000820180546102e190610889565b80601f016020809104026020016040519081016040528092919081815260200182805461030d90610889565b801561035a5780601f1061032f5761010080835404028352916020019161035a565b820191906000526020600020905b81548152906001019060200180831161033d57829003601f168201915b50505050508152602001600182015481525050815260200190600101906102ae565b50505050905090565b6000600280549050905090565b6000604051905090565b600080fd5b600080fd5b600080fd5b600080fd5b6000601f19601f8301169050919050565b7f4e487b7100000000000000000000000000000000000000000000000000000000600052604160045260246000fd5b6103f9826103b0565b810181811067ffffffffffffffff82111715610418576104176103c1565b5b80604052505050565b600061042b610392565b905061043782826103f0565b919050565b600067ffffffffffffffff821115610457576104566103c1565b5b610460826103b0565b9050602081019050919050565b82818337600083830152505050565b600061048f61048a8461043c565b610421565b9050828152602081018484840111156104ab576104aa6103ab565b5b6104b684828561046d565b509392505050565b600082601f8301126104d3576104d26103a6565b5b81356104e384826020860161047c565b91505092915050565b6000819050919050565b6104ff816104ec565b811461050a57600080fd5b50565b60008135905061051c816104f6565b92915050565b600080604083850312156105395761053861039c565b5b600083013567ffffffffffffffff811115610557576105566103a1565b5b610563858286016104be565b92505060206105748582860161050d565b9150509250929050565b6000602082840312156105945761059361039c565b5b60006105a28482850161050d565b91505092915050565b600081519050919050565b600082825260208201905092915050565b60005b838110156105e55780820151818401526020810190506105ca565b60008484015250505050565b60006105fc826105ab565b61060681856105b6565b93506106168185602086016105c7565b61061f816103b0565b840191505092915050565b610633816104ec565b82525050565b6000604082019050818103600083015261065381856105f1565b9050610662602083018461062a565b9392505050565b600073ffffffffffffffffffffffffffffffffffffffff82169050919050565b600061069482610669565b9050919050565b6106a481610689565b82525050565b60006020820190506106bf600083018461069b565b92915050565b600081519050919050565b600082825260208201905092915050565b6000819050602082019050919050565b600082825260208201905092915050565b600061070d826105ab565b61071781856106f1565b93506107278185602086016105c7565b610730816103b0565b840191505092915050565b610744816104ec565b82525050565b600060408301600083015184820360008601526107678282610702565b915050602083015161077c602086018261073b565b508091505092915050565b6000610793838361074a565b905092915050565b6000602082019050919050565b60006107b3826106c5565b6107bd81856106d0565b9350836020820285016107cf856106e1565b8060005b8581101561080b57848403895281516107ec8582610787565b94506107f78361079b565b925060208a019950506001810190506107d3565b50829750879550505050505092915050565b6000602082019050818103600083015261083781846107a8565b905092915050565b6000602082019050610854600083018461062a565b92915050565b7f4e487b7100000000000000000000000000000000000000000000000000000000600052602260045260246000fd5b600060028204905060018216806108a157607f821691505b6020821081036108b4576108b361085a565b5b50919050565b60008190508160005260206000209050919050565b60006020601f8301049050919050565b600082821b905092915050565b60006008830261091c7fffffffffffffffffffffffffffffffffffffffffffffffffffffffffffffffff826108df565b61092686836108df565b95508019841693508086168417925050509392505050565b6000819050919050565b600061096361095e610959846104ec565b61093e565b6104ec565b9050919050565b6000819050919050565b61097d83610948565b6109916109898261096a565b8484546108ec565b825550505050565b600090565b6109a6610999565b6109b1818484610974565b505050565b5b818110156109d5576109ca60008261099e565b6001810190506109b7565b5050565b601f821115610a1a576109eb816108ba565b6109f4846108cf565b81016020851015610a03578190505b610a17610a0f856108cf565b8301826109b6565b50505b505050565b600082821c905092915050565b6000610a3d60001984600802610a1f565b1980831691505092915050565b6000610a568383610a2c565b9150826002028217905092915050565b610a6f826105ab565b67ffffffffffffffff811115610a8857610a876103c1565b5b610a928254610889565b610a9d8282856109d9565b600060209050601f831160018114610ad05760008415610abe578287015190505b610ac88582610a4a565b865550610b30565b601f198416610ade866108ba565b60005b82811015610b0657848901518255600182019150602085019450602081019050610ae1565b86831015610b235784890151610b1f601f891682610a2c565b8355505b6001600288020188555050505b50505050505056fea2646970667358221220bdc29f738f438795d69f185bc2f908f6bef8d4f301feb6720e33f912f850cd6464736f6c63430008130033",
  "linkReferences": {},
  "deployedLinkReferences": {}
}