{
  "_format": "hh-sol-artifact-1",
  "contractName": "MovieTicketing",
  "sourceName": "contracts/MovieTicketing.sol",
  "abi": [
    {
      "anonymous": false,
      "inputs": [
        {
          "indexed": false,
          "internalType": "uint256",
          "name": "_movieIndex",
          "type": "uint256"
        },
        {
          "indexed": false,
          "internalType": "string",
          "name": "title",
          "type": "string"
        },
        {
          "indexed": false,
          "internalType": "uint256",
          "name": "rating",
          "type": "uint256"
        },
        {
          "indexed": false,
          "internalType": "uint256",
          "name": "totalSeats",
          "type": "uint256"
        }
      ],
      "name": "MovieAdded",
      "type": "event"
    },
    {
      "anonymous": false,
      "inputs": [
        {
          "indexed": false,
          "internalType": "address",
          "name": "owner",
          "type": "address"
        },
        {
          "indexed": false,
          "internalType": "uint256[]",
          "name": "seatIndex",
          "type": "uint256[]"
        },
        {
          "indexed": false,
          "internalType": "uint256",
          "name": "movieId",
          "type": "uint256"
        },
        {
          "indexed": false,
          "internalType": "uint256",
          "name": "timeStamp",
          "type": "uint256"
        }
      ],
      "name": "SeatBooked",
      "type": "event"
    },
    {
      "inputs": [
        {
          "internalType": "string",
          "name": "_title",
          "type": "string"
        },
        {
          "internalType": "uint256",
          "name": "_rating",
          "type": "uint256"
        },
        {
          "internalType": "uint256",
          "name": "_totalSeats",
          "type": "uint256"
        }
      ],
      "name": "addMovie",
      "outputs": [],
      "stateMutability": "nonpayable",
      "type": "function"
    },
    {
      "inputs": [
        {
          "internalType": "uint256",
          "name": "_movieIndex",
          "type": "uint256"
        },
        {
          "internalType": "uint256[]",
          "name": "_seatIndex",
          "type": "uint256[]"
        },
        {
          "internalType": "address",
          "name": "_owner",
          "type": "address"
        }
      ],
      "name": "bookSeat",
      "outputs": [],
      "stateMutability": "nonpayable",
      "type": "function"
    },
    {
      "inputs": [
        {
          "internalType": "address",
          "name": "",
          "type": "address"
        },
        {
          "internalType": "uint256",
          "name": "",
          "type": "uint256"
        }
      ],
      "name": "clientSeats",
      "outputs": [
        {
          "internalType": "uint256",
          "name": "movieId",
          "type": "uint256"
        },
        {
          "internalType": "uint256",
          "name": "seatIndex",
          "type": "uint256"
        },
        {
          "internalType": "uint256",
          "name": "timeStamp",
          "type": "uint256"
        }
      ],
      "stateMutability": "view",
      "type": "function"
    },
    {
      "inputs": [],
      "name": "getAllMovies",
      "outputs": [
        {
          "components": [
            {
              "internalType": "uint256",
              "name": "movieIndex",
              "type": "uint256"
            },
            {
              "internalType": "string",
              "name": "title",
              "type": "string"
            },
            {
              "internalType": "uint256",
              "name": "rating",
              "type": "uint256"
            },
            {
              "internalType": "uint256",
              "name": "totalSeats",
              "type": "uint256"
            }
          ],
          "internalType": "struct MovieStruct[]",
          "name": "",
          "type": "tuple[]"
        }
      ],
      "stateMutability": "view",
      "type": "function"
    },
    {
      "inputs": [],
      "name": "getAllMoviesCount",
      "outputs": [
        {
          "internalType": "uint256",
          "name": "",
          "type": "uint256"
        }
      ],
      "stateMutability": "view",
      "type": "function"
    },
    {
      "inputs": [],
      "name": "getSeatsByClientId",
      "outputs": [
        {
          "components": [
            {
              "internalType": "uint256",
              "name": "movieId",
              "type": "uint256"
            },
            {
              "internalType": "uint256",
              "name": "seatIndex",
              "type": "uint256"
            },
            {
              "internalType": "uint256",
              "name": "timeStamp",
              "type": "uint256"
            }
          ],
          "internalType": "struct SeatStruct[]",
          "name": "",
          "type": "tuple[]"
        }
      ],
      "stateMutability": "view",
      "type": "function"
    },
    {
      "inputs": [
        {
          "internalType": "uint256",
          "name": "_movieId",
          "type": "uint256"
        }
      ],
      "name": "getSeatsByMovieId",
      "outputs": [
        {
          "internalType": "uint256[]",
          "name": "",
          "type": "uint256[]"
        }
      ],
      "stateMutability": "view",
      "type": "function"
    },
    {
      "inputs": [
        {
          "internalType": "uint256",
          "name": "",
          "type": "uint256"
        },
        {
          "internalType": "uint256",
          "name": "",
          "type": "uint256"
        }
      ],
      "name": "movieToBookedSeats",
      "outputs": [
        {
          "internalType": "uint256",
          "name": "",
          "type": "uint256"
        }
      ],
      "stateMutability": "view",
      "type": "function"
    },
    {
      "inputs": [
        {
          "internalType": "uint256",
          "name": "",
          "type": "uint256"
        },
        {
          "internalType": "uint256",
          "name": "",
          "type": "uint256"
        },
        {
          "internalType": "uint256",
          "name": "",
          "type": "uint256"
        }
      ],
      "name": "movieToBookedSeatss",
      "outputs": [
        {
          "internalType": "uint256",
          "name": "",
          "type": "uint256"
        }
      ],
      "stateMutability": "view",
      "type": "function"
    },
    {
      "inputs": [
        {
          "internalType": "uint256",
          "name": "",
          "type": "uint256"
        }
      ],
      "name": "movies",
      "outputs": [
        {
          "internalType": "uint256",
          "name": "movieIndex",
          "type": "uint256"
        },
        {
          "internalType": "string",
          "name": "title",
          "type": "string"
        },
        {
          "internalType": "uint256",
          "name": "rating",
          "type": "uint256"
        },
        {
          "internalType": "uint256",
          "name": "totalSeats",
          "type": "uint256"
        }
      ],
      "stateMutability": "view",
      "type": "function"
    }
  ],
  "bytecode": "0x608060405273f39fd6e51aad88f6f4ce6ab8827279cfffb92266600160006101000a81548173ffffffffffffffffffffffffffffffffffffffff021916908373ffffffffffffffffffffffffffffffffffffffff16021790555034801561006557600080fd5b506118ea806100756000396000f3fe608060405234801561001057600080fd5b506004361061009d5760003560e01c806395c763c61161006657806395c763c61461015b578063e08e1ef21461018b578063e16f0065146101bd578063f1f165e5146101db578063f334718f146101f95761009d565b806270a159146100a257806311be2a68146100d25780632080c3dc146100ee578063404ebf6c1461010a5780635af3cc3b1461013d575b600080fd5b6100bc60048036038101906100b79190610add565b610229565b6040516100c99190610b2c565b60405180910390f35b6100ec60048036038101906100e79190610cfe565b61025a565b005b61010860048036038101906101039190610e22565b61042e565b005b610124600480360381019061011f9190610e91565b6105c2565b6040516101349493929190610f3d565b60405180910390f35b61014561068a565b6040516101529190611089565b60405180910390f35b61017560048036038101906101709190610e91565b610744565b604051610182919061115a565b60405180910390f35b6101a560048036038101906101a0919061117c565b6107af565b6040516101b4939291906111bc565b60405180910390f35b6101c56107f6565b6040516101d29190611362565b60405180910390f35b6101e3610905565b6040516101f09190610b2c565b60405180910390f35b610213600480360381019061020e9190611384565b610912565b6040516102209190610b2c565b60405180910390f35b6004602052816000526040600020818154811061024557600080fd5b90600052602060002001600091509150505481565b60008042905061026a8585610950565b9150816102ac576040517f08c379a00000000000000000000000000000000000000000000000000000000081526004016102a390611423565b60405180910390fd5b60005b84518110156103e9576102c0610a4a565b868160000181815250508582815181106102dd576102dc611443565b5b602002602001015181602001818152505082816040018181525050600360008673ffffffffffffffffffffffffffffffffffffffff1673ffffffffffffffffffffffffffffffffffffffff1681526020019081526020016000208190806001815401808255809150506001900390600052602060002090600302016000909190919091506000820151816000015560208201518160010155604082015181600201555050600460008881526020019081526020016000208683815181106103a7576103a6611443565b5b602002602001015190806001815401808255809150506001900390600052602060002001600090919091909150555080806103e1906114a1565b9150506102af565b507f0da3e3b47f7ed94fe23fb9bebdb9f7f4340673e3ff632a9380ae45bf4558c4ef8385878460405161041f94939291906114f8565b60405180910390a15050505050565b600160009054906101000a900473ffffffffffffffffffffffffffffffffffffffff1673ffffffffffffffffffffffffffffffffffffffff163373ffffffffffffffffffffffffffffffffffffffff16146104be576040517f08c379a00000000000000000000000000000000000000000000000000000000081526004016104b5906115b6565b60405180910390fd5b6104c6610a6b565b6000548160000181815250508381602001819052508281604001818152505081816060018181525050600281908060018154018082558091505060019003906000526020600020906004020160009091909190915060008201518160000155602082015181600101908161053a91906117e2565b50604082015181600201556060820151816003015550506004600080548152602001908152602001600020507f016a5e7e30a5293078590a43f48f9c25553a4aaf18107da59e249f989ab6728060005485858560405161059d9493929190610f3d565b60405180910390a16000808154809291906105b7906114a1565b919050555050505050565b600281815481106105d257600080fd5b90600052602060002090600402016000915090508060000154908060010180546105fb90611605565b80601f016020809104026020016040519081016040528092919081815260200182805461062790611605565b80156106745780601f1061064957610100808354040283529160200191610674565b820191906000526020600020905b81548152906001019060200180831161065757829003601f168201915b5050505050908060020154908060030154905084565b6060600360003373ffffffffffffffffffffffffffffffffffffffff1673ffffffffffffffffffffffffffffffffffffffff168152602001908152602001600020805480602002602001604051908101604052809291908181526020016000905b8282101561073b57838290600052602060002090600302016040518060600160405290816000820154815260200160018201548152602001600282015481525050815260200190600101906106eb565b50505050905090565b6060600460008381526020019081526020016000208054806020026020016040519081016040528092919081815260200182805480156107a357602002820191906000526020600020905b81548152602001906001019080831161078f575b50505050509050919050565b600360205281600052604060002081815481106107cb57600080fd5b9060005260206000209060030201600091509150508060000154908060010154908060020154905083565b60606002805480602002602001604051908101604052809291908181526020016000905b828210156108fc57838290600052602060002090600402016040518060800160405290816000820154815260200160018201805461085790611605565b80601f016020809104026020016040519081016040528092919081815260200182805461088390611605565b80156108d05780601f106108a5576101008083540402835291602001916108d0565b820191906000526020600020905b8154815290600101906020018083116108b357829003601f168201915b50505050508152602001600282015481526020016003820154815250508152602001906001019061081a565b50505050905090565b6000600280549050905090565b6005602052826000526040600020602052816000526040600020818154811061093a57600080fd5b9060005260206000200160009250925050505481565b600080600460008581526020019081526020016000208054806020026020016040519081016040528092919081815260200182805480156109b057602002820191906000526020600020905b81548152602001906001019080831161099c575b5050505050905060005b8351811015610a3d5760005b8251811015610a29578482815181106109e2576109e1611443565b5b60200260200101518382815181106109fd576109fc611443565b5b602002602001015103610a165760009350505050610a44565b8080610a21906114a1565b9150506109c6565b508080610a35906114a1565b9150506109ba565b5060019150505b92915050565b60405180606001604052806000815260200160008152602001600081525090565b6040518060800160405280600081526020016060815260200160008152602001600081525090565b6000604051905090565b600080fd5b600080fd5b6000819050919050565b610aba81610aa7565b8114610ac557600080fd5b50565b600081359050610ad781610ab1565b92915050565b60008060408385031215610af457610af3610a9d565b5b6000610b0285828601610ac8565b9250506020610b1385828601610ac8565b9150509250929050565b610b2681610aa7565b82525050565b6000602082019050610b416000830184610b1d565b92915050565b600080fd5b6000601f19601f8301169050919050565b7f4e487b7100000000000000000000000000000000000000000000000000000000600052604160045260246000fd5b610b9582610b4c565b810181811067ffffffffffffffff82111715610bb457610bb3610b5d565b5b80604052505050565b6000610bc7610a93565b9050610bd38282610b8c565b919050565b600067ffffffffffffffff821115610bf357610bf2610b5d565b5b602082029050602081019050919050565b600080fd5b6000610c1c610c1784610bd8565b610bbd565b90508083825260208201905060208402830185811115610c3f57610c3e610c04565b5b835b81811015610c685780610c548882610ac8565b845260208401935050602081019050610c41565b5050509392505050565b600082601f830112610c8757610c86610b47565b5b8135610c97848260208601610c09565b91505092915050565b600073ffffffffffffffffffffffffffffffffffffffff82169050919050565b6000610ccb82610ca0565b9050919050565b610cdb81610cc0565b8114610ce657600080fd5b50565b600081359050610cf881610cd2565b92915050565b600080600060608486031215610d1757610d16610a9d565b5b6000610d2586828701610ac8565b935050602084013567ffffffffffffffff811115610d4657610d45610aa2565b5b610d5286828701610c72565b9250506040610d6386828701610ce9565b9150509250925092565b600080fd5b600067ffffffffffffffff821115610d8d57610d8c610b5d565b5b610d9682610b4c565b9050602081019050919050565b82818337600083830152505050565b6000610dc5610dc084610d72565b610bbd565b905082815260208101848484011115610de157610de0610d6d565b5b610dec848285610da3565b509392505050565b600082601f830112610e0957610e08610b47565b5b8135610e19848260208601610db2565b91505092915050565b600080600060608486031215610e3b57610e3a610a9d565b5b600084013567ffffffffffffffff811115610e5957610e58610aa2565b5b610e6586828701610df4565b9350506020610e7686828701610ac8565b9250506040610e8786828701610ac8565b9150509250925092565b600060208284031215610ea757610ea6610a9d565b5b6000610eb584828501610ac8565b91505092915050565b600081519050919050565b600082825260208201905092915050565b60005b83811015610ef8578082015181840152602081019050610edd565b60008484015250505050565b6000610f0f82610ebe565b610f198185610ec9565b9350610f29818560208601610eda565b610f3281610b4c565b840191505092915050565b6000608082019050610f526000830187610b1d565b8181036020830152610f648186610f04565b9050610f736040830185610b1d565b610f806060830184610b1d565b95945050505050565b600081519050919050565b600082825260208201905092915050565b6000819050602082019050919050565b610fbe81610aa7565b82525050565b606082016000820151610fda6000850182610fb5565b506020820151610fed6020850182610fb5565b5060408201516110006040850182610fb5565b50505050565b60006110128383610fc4565b60608301905092915050565b6000602082019050919050565b600061103682610f89565b6110408185610f94565b935061104b83610fa5565b8060005b8381101561107c5781516110638882611006565b975061106e8361101e565b92505060018101905061104f565b5085935050505092915050565b600060208201905081810360008301526110a3818461102b565b905092915050565b600081519050919050565b600082825260208201905092915050565b6000819050602082019050919050565b60006110e38383610fb5565b60208301905092915050565b6000602082019050919050565b6000611107826110ab565b61111181856110b6565b935061111c836110c7565b8060005b8381101561114d57815161113488826110d7565b975061113f836110ef565b925050600181019050611120565b5085935050505092915050565b6000602082019050818103600083015261117481846110fc565b905092915050565b6000806040838503121561119357611192610a9d565b5b60006111a185828601610ce9565b92505060206111b285828601610ac8565b9150509250929050565b60006060820190506111d16000830186610b1d565b6111de6020830185610b1d565b6111eb6040830184610b1d565b949350505050565b600081519050919050565b600082825260208201905092915050565b6000819050602082019050919050565b600082825260208201905092915050565b600061123b82610ebe565b611245818561121f565b9350611255818560208601610eda565b61125e81610b4c565b840191505092915050565b60006080830160008301516112816000860182610fb5565b50602083015184820360208601526112998282611230565b91505060408301516112ae6040860182610fb5565b5060608301516112c16060860182610fb5565b508091505092915050565b60006112d88383611269565b905092915050565b6000602082019050919050565b60006112f8826111f3565b61130281856111fe565b9350836020820285016113148561120f565b8060005b85811015611350578484038952815161133185826112cc565b945061133c836112e0565b925060208a01995050600181019050611318565b50829750879550505050505092915050565b6000602082019050818103600083015261137c81846112ed565b905092915050565b60008060006060848603121561139d5761139c610a9d565b5b60006113ab86828701610ac8565b93505060206113bc86828701610ac8565b92505060406113cd86828701610ac8565b9150509250925092565b7f5365617420616c726561647920626f6f6b656400000000000000000000000000600082015250565b600061140d601383610ec9565b9150611418826113d7565b602082019050919050565b6000602082019050818103600083015261143c81611400565b9050919050565b7f4e487b7100000000000000000000000000000000000000000000000000000000600052603260045260246000fd5b7f4e487b7100000000000000000000000000000000000000000000000000000000600052601160045260246000fd5b60006114ac82610aa7565b91507fffffffffffffffffffffffffffffffffffffffffffffffffffffffffffffffff82036114de576114dd611472565b5b600182019050919050565b6114f281610cc0565b82525050565b600060808201905061150d60008301876114e9565b818103602083015261151f81866110fc565b905061152e6040830185610b1d565b61153b6060830184610b1d565b95945050505050565b7f596f7520646f6e2774202068617665202070726976696c6167652020746f204160008201527f6464206d6f766965000000000000000000000000000000000000000000000000602082015250565b60006115a0602883610ec9565b91506115ab82611544565b604082019050919050565b600060208201905081810360008301526115cf81611593565b9050919050565b7f4e487b7100000000000000000000000000000000000000000000000000000000600052602260045260246000fd5b6000600282049050600182168061161d57607f821691505b6020821081036116305761162f6115d6565b5b50919050565b60008190508160005260206000209050919050565b60006020601f8301049050919050565b600082821b905092915050565b6000600883026116987fffffffffffffffffffffffffffffffffffffffffffffffffffffffffffffffff8261165b565b6116a2868361165b565b95508019841693508086168417925050509392505050565b6000819050919050565b60006116df6116da6116d584610aa7565b6116ba565b610aa7565b9050919050565b6000819050919050565b6116f9836116c4565b61170d611705826116e6565b848454611668565b825550505050565b600090565b611722611715565b61172d8184846116f0565b505050565b5b818110156117515761174660008261171a565b600181019050611733565b5050565b601f8211156117965761176781611636565b6117708461164b565b8101602085101561177f578190505b61179361178b8561164b565b830182611732565b50505b505050565b600082821c905092915050565b60006117b96000198460080261179b565b1980831691505092915050565b60006117d283836117a8565b9150826002028217905092915050565b6117eb82610ebe565b67ffffffffffffffff81111561180457611803610b5d565b5b61180e8254611605565b611819828285611755565b600060209050601f83116001811461184c576000841561183a578287015190505b61184485826117c6565b8655506118ac565b601f19841661185a86611636565b60005b828110156118825784890151825560018201915060208501945060208101905061185d565b8683101561189f578489015161189b601f8916826117a8565b8355505b6001600288020188555050505b50505050505056fea2646970667358221220b84940cc4a3973be997ae6969f4d3cfc3f168ec0dcbb6b3fed806dcd8928a02064736f6c63430008130033",
  "linkReferences": {},
  "deployedLinkReferences": {}
}